{
  "_format": "hh-sol-artifact-1",
  "contractName": "GameSpaceStore",
  "sourceName": "contracts/GameSpaceStoreV2.sol",
  "abi": [
    {
      "inputs": [
        {
          "internalType": "string",
          "name": "name_",
          "type": "string"
        },
        {
          "internalType": "string",
          "name": "symbol_",
          "type": "string"
        },
        {
          "internalType": "string",
          "name": "baseUri_",
          "type": "string"
        }
      ],
      "stateMutability": "nonpayable",
      "type": "constructor"
    },
    {
      "anonymous": false,
      "inputs": [
        {
          "indexed": true,
          "internalType": "address",
          "name": "owner",
          "type": "address"
        },
        {
          "indexed": true,
          "internalType": "address",
          "name": "approved",
          "type": "address"
        },
        {
          "indexed": true,
          "internalType": "uint256",
          "name": "tokenId",
          "type": "uint256"
        }
      ],
      "name": "Approval",
      "type": "event"
    },
    {
      "anonymous": false,
      "inputs": [
        {
          "indexed": true,
          "internalType": "address",
          "name": "owner",
          "type": "address"
        },
        {
          "indexed": true,
          "internalType": "address",
          "name": "operator",
          "type": "address"
        },
        {
          "indexed": false,
          "internalType": "bool",
          "name": "approved",
          "type": "bool"
        }
      ],
      "name": "ApprovalForAll",
      "type": "event"
    },
    {
      "anonymous": false,
      "inputs": [
        {
          "indexed": true,
          "internalType": "address",
          "name": "previousOwner",
          "type": "address"
        },
        {
          "indexed": true,
          "internalType": "address",
          "name": "newOwner",
          "type": "address"
        }
      ],
      "name": "OwnershipTransferred",
      "type": "event"
    },
    {
      "anonymous": false,
      "inputs": [
        {
          "indexed": false,
          "internalType": "address",
          "name": "account",
          "type": "address"
        }
      ],
      "name": "Paused",
      "type": "event"
    },
    {
      "anonymous": false,
      "inputs": [
        {
          "indexed": true,
          "internalType": "address",
          "name": "from",
          "type": "address"
        },
        {
          "indexed": true,
          "internalType": "address",
          "name": "to",
          "type": "address"
        },
        {
          "indexed": true,
          "internalType": "uint256",
          "name": "tokenId",
          "type": "uint256"
        }
      ],
      "name": "Transfer",
      "type": "event"
    },
    {
      "anonymous": false,
      "inputs": [
        {
          "indexed": false,
          "internalType": "address",
          "name": "account",
          "type": "address"
        }
      ],
      "name": "Unpaused",
      "type": "event"
    },
    {
      "anonymous": false,
      "inputs": [
        {
          "indexed": true,
          "internalType": "uint256",
          "name": "tokenId",
          "type": "uint256"
        },
        {
          "indexed": true,
          "internalType": "address",
          "name": "user",
          "type": "address"
        },
        {
          "indexed": false,
          "internalType": "uint64",
          "name": "expires",
          "type": "uint64"
        }
      ],
      "name": "UpdateUser",
      "type": "event"
    },
    {
      "inputs": [
        {
          "internalType": "address",
          "name": "to",
          "type": "address"
        },
        {
          "internalType": "uint256",
          "name": "tokenId",
          "type": "uint256"
        }
      ],
      "name": "approve",
      "outputs": [],
      "stateMutability": "nonpayable",
      "type": "function"
    },
    {
      "inputs": [
        {
          "internalType": "address",
          "name": "owner",
          "type": "address"
        }
      ],
      "name": "balanceOf",
      "outputs": [
        {
          "internalType": "uint256",
          "name": "",
          "type": "uint256"
        }
      ],
      "stateMutability": "view",
      "type": "function"
    },
    {
      "inputs": [
        {
          "internalType": "uint256",
          "name": "tokenId",
          "type": "uint256"
        }
      ],
      "name": "burn",
      "outputs": [],
      "stateMutability": "nonpayable",
      "type": "function"
    },
    {
      "inputs": [
        {
          "internalType": "uint256",
          "name": "tokenId",
          "type": "uint256"
        }
      ],
      "name": "getApproved",
      "outputs": [
        {
          "internalType": "address",
          "name": "",
          "type": "address"
        }
      ],
      "stateMutability": "view",
      "type": "function"
    },
    {
      "inputs": [
        {
          "internalType": "address",
          "name": "owner",
          "type": "address"
        },
        {
          "internalType": "address",
          "name": "operator",
          "type": "address"
        }
      ],
      "name": "isApprovedForAll",
      "outputs": [
        {
          "internalType": "bool",
          "name": "",
          "type": "bool"
        }
      ],
      "stateMutability": "view",
      "type": "function"
    },
    {
      "inputs": [],
      "name": "name",
      "outputs": [
        {
          "internalType": "string",
          "name": "",
          "type": "string"
        }
      ],
      "stateMutability": "view",
      "type": "function"
    },
    {
      "inputs": [],
      "name": "owner",
      "outputs": [
        {
          "internalType": "address",
          "name": "",
          "type": "address"
        }
      ],
      "stateMutability": "view",
      "type": "function"
    },
    {
      "inputs": [
        {
          "internalType": "uint256",
          "name": "tokenId",
          "type": "uint256"
        }
      ],
      "name": "ownerOf",
      "outputs": [
        {
          "internalType": "address",
          "name": "",
          "type": "address"
        }
      ],
      "stateMutability": "view",
      "type": "function"
    },
    {
      "inputs": [],
      "name": "pause",
      "outputs": [],
      "stateMutability": "nonpayable",
      "type": "function"
    },
    {
      "inputs": [],
      "name": "paused",
      "outputs": [
        {
          "internalType": "bool",
          "name": "",
          "type": "bool"
        }
      ],
      "stateMutability": "view",
      "type": "function"
    },
    {
      "inputs": [],
      "name": "renounceOwnership",
      "outputs": [],
      "stateMutability": "nonpayable",
      "type": "function"
    },
    {
      "inputs": [
        {
          "internalType": "uint256",
          "name": "_tokenId",
          "type": "uint256"
        },
        {
          "internalType": "uint256",
          "name": "_salePrice",
          "type": "uint256"
        }
      ],
      "name": "royaltyInfo",
      "outputs": [
        {
          "internalType": "address",
          "name": "",
          "type": "address"
        },
        {
          "internalType": "uint256",
          "name": "",
          "type": "uint256"
        }
      ],
      "stateMutability": "view",
      "type": "function"
    },
    {
      "inputs": [
        {
          "internalType": "address",
          "name": "to",
          "type": "address"
        },
        {
          "internalType": "uint256",
          "name": "tokenId",
          "type": "uint256"
        }
      ],
      "name": "safeMint",
      "outputs": [],
      "stateMutability": "nonpayable",
      "type": "function"
    },
    {
      "inputs": [
        {
          "internalType": "address",
          "name": "from",
          "type": "address"
        },
        {
          "internalType": "address",
          "name": "to",
          "type": "address"
        },
        {
          "internalType": "uint256",
          "name": "tokenId",
          "type": "uint256"
        }
      ],
      "name": "safeTransferFrom",
      "outputs": [],
      "stateMutability": "nonpayable",
      "type": "function"
    },
    {
      "inputs": [
        {
          "internalType": "address",
          "name": "from",
          "type": "address"
        },
        {
          "internalType": "address",
          "name": "to",
          "type": "address"
        },
        {
          "internalType": "uint256",
          "name": "tokenId",
          "type": "uint256"
        },
        {
          "internalType": "bytes",
          "name": "data",
          "type": "bytes"
        }
      ],
      "name": "safeTransferFrom",
      "outputs": [],
      "stateMutability": "nonpayable",
      "type": "function"
    },
    {
      "inputs": [
        {
          "internalType": "address",
          "name": "operator",
          "type": "address"
        },
        {
          "internalType": "bool",
          "name": "approved",
          "type": "bool"
        }
      ],
      "name": "setApprovalForAll",
      "outputs": [],
      "stateMutability": "nonpayable",
      "type": "function"
    },
    {
      "inputs": [
        {
          "internalType": "address",
          "name": "receiver",
          "type": "address"
        },
        {
          "internalType": "uint96",
          "name": "feeNumerator",
          "type": "uint96"
        }
      ],
      "name": "setDefaultRoyalty",
      "outputs": [],
      "stateMutability": "nonpayable",
      "type": "function"
    },
    {
      "inputs": [
        {
          "internalType": "uint256",
          "name": "tokenId",
          "type": "uint256"
        },
        {
          "internalType": "address",
          "name": "receiver",
          "type": "address"
        },
        {
          "internalType": "uint96",
          "name": "feeNumerator",
          "type": "uint96"
        }
      ],
      "name": "setTokenRoyalty",
      "outputs": [],
      "stateMutability": "nonpayable",
      "type": "function"
    },
    {
      "inputs": [
        {
          "internalType": "uint256",
          "name": "tokenId",
          "type": "uint256"
        },
        {
          "internalType": "address",
          "name": "user",
          "type": "address"
        },
        {
          "internalType": "uint64",
          "name": "expires",
          "type": "uint64"
        }
      ],
      "name": "setUser",
      "outputs": [],
      "stateMutability": "nonpayable",
      "type": "function"
    },
    {
      "inputs": [
        {
          "internalType": "bytes4",
          "name": "interfaceId",
          "type": "bytes4"
        }
      ],
      "name": "supportsInterface",
      "outputs": [
        {
          "internalType": "bool",
          "name": "",
          "type": "bool"
        }
      ],
      "stateMutability": "view",
      "type": "function"
    },
    {
      "inputs": [],
      "name": "symbol",
      "outputs": [
        {
          "internalType": "string",
          "name": "",
          "type": "string"
        }
      ],
      "stateMutability": "view",
      "type": "function"
    },
    {
      "inputs": [
        {
          "internalType": "uint256",
          "name": "index",
          "type": "uint256"
        }
      ],
      "name": "tokenByIndex",
      "outputs": [
        {
          "internalType": "uint256",
          "name": "",
          "type": "uint256"
        }
      ],
      "stateMutability": "view",
      "type": "function"
    },
    {
      "inputs": [
        {
          "internalType": "address",
          "name": "owner",
          "type": "address"
        },
        {
          "internalType": "uint256",
          "name": "index",
          "type": "uint256"
        }
      ],
      "name": "tokenOfOwnerByIndex",
      "outputs": [
        {
          "internalType": "uint256",
          "name": "",
          "type": "uint256"
        }
      ],
      "stateMutability": "view",
      "type": "function"
    },
    {
      "inputs": [
        {
          "internalType": "uint256",
          "name": "tokenId",
          "type": "uint256"
        }
      ],
      "name": "tokenURI",
      "outputs": [
        {
          "internalType": "string",
          "name": "",
          "type": "string"
        }
      ],
      "stateMutability": "view",
      "type": "function"
    },
    {
      "inputs": [],
      "name": "totalSupply",
      "outputs": [
        {
          "internalType": "uint256",
          "name": "",
          "type": "uint256"
        }
      ],
      "stateMutability": "view",
      "type": "function"
    },
    {
      "inputs": [
        {
          "internalType": "address",
          "name": "from",
          "type": "address"
        },
        {
          "internalType": "address",
          "name": "to",
          "type": "address"
        },
        {
          "internalType": "uint256",
          "name": "tokenId",
          "type": "uint256"
        }
      ],
      "name": "transferFrom",
      "outputs": [],
      "stateMutability": "nonpayable",
      "type": "function"
    },
    {
      "inputs": [
        {
          "internalType": "address",
          "name": "newOwner",
          "type": "address"
        }
      ],
      "name": "transferOwnership",
      "outputs": [],
      "stateMutability": "nonpayable",
      "type": "function"
    },
    {
      "inputs": [],
      "name": "unpause",
      "outputs": [],
      "stateMutability": "nonpayable",
      "type": "function"
    },
    {
      "inputs": [
        {
          "internalType": "uint256",
          "name": "tokenId",
          "type": "uint256"
        }
      ],
      "name": "userExpires",
      "outputs": [
        {
          "internalType": "uint256",
          "name": "",
          "type": "uint256"
        }
      ],
      "stateMutability": "view",
      "type": "function"
    },
    {
      "inputs": [
        {
          "internalType": "uint256",
          "name": "tokenId",
          "type": "uint256"
        }
      ],
      "name": "userOf",
      "outputs": [
        {
          "internalType": "address",
          "name": "",
          "type": "address"
        }
      ],
      "stateMutability": "view",
      "type": "function"
    }
  ],
  "bytecode": "0x60806040523480156200001157600080fd5b50604051620049ee380380620049ee8339818101604052810190620000379190620003e9565b828281818160009080519060200190620000539291906200019c565b5080600190805190602001906200006c9291906200019c565b50505050506000600d60006101000a81548160ff021916908315150217905550620000ac620000a0620000ce60201b60201c565b620000d660201b60201c565b80600e9080519060200190620000c49291906200019c565b5050505062000507565b600033905090565b6000600d60019054906101000a900473ffffffffffffffffffffffffffffffffffffffff16905081600d60016101000a81548173ffffffffffffffffffffffffffffffffffffffff021916908373ffffffffffffffffffffffffffffffffffffffff1602179055508173ffffffffffffffffffffffffffffffffffffffff168173ffffffffffffffffffffffffffffffffffffffff167f8be0079c531659141344cd1fd0a4f28419497f9722a3daafe3b4186f6b6457e060405160405180910390a35050565b828054620001aa90620004d1565b90600052602060002090601f016020900481019282620001ce57600085556200021a565b82601f10620001e957805160ff19168380011785556200021a565b828001600101855582156200021a579182015b8281111562000219578251825591602001919060010190620001fc565b5b5090506200022991906200022d565b5090565b5b80821115620002485760008160009055506001016200022e565b5090565b6000604051905090565b600080fd5b600080fd5b600080fd5b600080fd5b6000601f19601f8301169050919050565b7f4e487b7100000000000000000000000000000000000000000000000000000000600052604160045260246000fd5b620002b5826200026a565b810181811067ffffffffffffffff82111715620002d757620002d66200027b565b5b80604052505050565b6000620002ec6200024c565b9050620002fa8282620002aa565b919050565b600067ffffffffffffffff8211156200031d576200031c6200027b565b5b62000328826200026a565b9050602081019050919050565b60005b838110156200035557808201518184015260208101905062000338565b8381111562000365576000848401525b50505050565b6000620003826200037c84620002ff565b620002e0565b905082815260208101848484011115620003a157620003a062000265565b5b620003ae84828562000335565b509392505050565b600082601f830112620003ce57620003cd62000260565b5b8151620003e08482602086016200036b565b91505092915050565b60008060006060848603121562000405576200040462000256565b5b600084015167ffffffffffffffff8111156200042657620004256200025b565b5b6200043486828701620003b6565b935050602084015167ffffffffffffffff8111156200045857620004576200025b565b5b6200046686828701620003b6565b925050604084015167ffffffffffffffff8111156200048a57620004896200025b565b5b6200049886828701620003b6565b9150509250925092565b7f4e487b7100000000000000000000000000000000000000000000000000000000600052602260045260246000fd5b60006002820490506001821680620004ea57607f821691505b60208210811415620005015762000500620004a2565b5b50919050565b6144d780620005176000396000f3fe608060405234801561001057600080fd5b50600436106101da5760003560e01c80636352211e11610104578063a1448194116100a2578063c87b56dd11610071578063c87b56dd14610540578063e030565e14610570578063e985e9c51461058c578063f2fde38b146105bc576101da565b8063a1448194146104bc578063a22cb465146104d8578063b88d4fde146104f4578063c2f1f14a14610510576101da565b80638456cb59116100de5780638456cb59146104465780638da5cb5b146104505780638fc88c481461046e57806395d89b411461049e576101da565b80636352211e146103dc57806370a082311461040c578063715018a61461043c576101da565b80632a55205a1161017c57806342966c681161014b57806342966c68146103565780634f6ccce7146103725780635944c753146103a25780635c975abb146103be576101da565b80632a55205a146102cf5780632f745c59146103005780633f4ba83a1461033057806342842e0e1461033a576101da565b8063081812fc116101b8578063081812fc14610249578063095ea7b31461027957806318160ddd1461029557806323b872dd146102b3576101da565b806301ffc9a7146101df57806304634d8d1461020f57806306fdde031461022b575b600080fd5b6101f960048036038101906101f49190612e5a565b6105d8565b6040516102069190612ea2565b60405180910390f35b61022960048036038101906102249190612f5f565b6105ea565b005b610233610600565b6040516102409190613038565b60405180910390f35b610263600480360381019061025e9190613090565b610692565b60405161027091906130cc565b60405180910390f35b610293600480360381019061028e91906130e7565b6106d8565b005b61029d6107f0565b6040516102aa9190613136565b60405180910390f35b6102cd60048036038101906102c89190613151565b6107fd565b005b6102e960048036038101906102e491906131a4565b61085d565b6040516102f79291906131e4565b60405180910390f35b61031a600480360381019061031591906130e7565b610a48565b6040516103279190613136565b60405180910390f35b610338610aed565b005b610354600480360381019061034f9190613151565b610aff565b005b610370600480360381019061036b9190613090565b610b1f565b005b61038c60048036038101906103879190613090565b610b7b565b6040516103999190613136565b60405180910390f35b6103bc60048036038101906103b7919061320d565b610bec565b005b6103c6610c04565b6040516103d39190612ea2565b60405180910390f35b6103f660048036038101906103f19190613090565b610c1b565b60405161040391906130cc565b60405180910390f35b61042660048036038101906104219190613260565b610ccd565b6040516104339190613136565b60405180910390f35b610444610d85565b005b61044e610d99565b005b610458610dab565b60405161046591906130cc565b60405180910390f35b61048860048036038101906104839190613090565b610dd5565b6040516104959190613136565b60405180910390f35b6104a6610e13565b6040516104b39190613038565b60405180910390f35b6104d660048036038101906104d191906130e7565b610ea5565b005b6104f260048036038101906104ed91906132b9565b610ebb565b005b61050e6004803603810190610509919061342e565b610ed1565b005b61052a60048036038101906105259190613090565b610f33565b60405161053791906130cc565b60405180910390f35b61055a60048036038101906105559190613090565b610fb8565b6040516105679190613038565b60405180910390f35b61058a600480360381019061058591906134f1565b611020565b005b6105a660048036038101906105a19190613544565b611143565b6040516105b39190612ea2565b60405180910390f35b6105d660048036038101906105d19190613260565b6111d7565b005b60006105e38261125b565b9050919050565b6105f26112d5565b6105fc8282611353565b5050565b60606000805461060f906135b3565b80601f016020809104026020016040519081016040528092919081815260200182805461063b906135b3565b80156106885780601f1061065d57610100808354040283529160200191610688565b820191906000526020600020905b81548152906001019060200180831161066b57829003601f168201915b5050505050905090565b600061069d826114e9565b6004600083815260200190815260200160002060009054906101000a900473ffffffffffffffffffffffffffffffffffffffff169050919050565b60006106e382610c1b565b90508073ffffffffffffffffffffffffffffffffffffffff168373ffffffffffffffffffffffffffffffffffffffff161415610754576040517f08c379a000000000000000000000000000000000000000000000000000000000815260040161074b90613657565b60405180910390fd5b8073ffffffffffffffffffffffffffffffffffffffff16610773611534565b73ffffffffffffffffffffffffffffffffffffffff1614806107a257506107a18161079c611534565b611143565b5b6107e1576040517f08c379a00000000000000000000000000000000000000000000000000000000081526004016107d8906136e9565b60405180910390fd5b6107eb838361153c565b505050565b6000600b80549050905090565b61080e610808611534565b826115f5565b61084d576040517f08c379a00000000000000000000000000000000000000000000000000000000081526004016108449061377b565b60405180910390fd5b61085883838361168a565b505050565b6000806000600860008681526020019081526020016000206040518060400160405290816000820160009054906101000a900473ffffffffffffffffffffffffffffffffffffffff1673ffffffffffffffffffffffffffffffffffffffff1673ffffffffffffffffffffffffffffffffffffffff1681526020016000820160149054906101000a90046bffffffffffffffffffffffff166bffffffffffffffffffffffff166bffffffffffffffffffffffff16815250509050600073ffffffffffffffffffffffffffffffffffffffff16816000015173ffffffffffffffffffffffffffffffffffffffff1614156109f35760076040518060400160405290816000820160009054906101000a900473ffffffffffffffffffffffffffffffffffffffff1673ffffffffffffffffffffffffffffffffffffffff1673ffffffffffffffffffffffffffffffffffffffff1681526020016000820160149054906101000a90046bffffffffffffffffffffffff166bffffffffffffffffffffffff166bffffffffffffffffffffffff168152505090505b60006109fd6118f1565b6bffffffffffffffffffffffff1682602001516bffffffffffffffffffffffff1686610a2991906137ca565b610a339190613853565b90508160000151819350935050509250929050565b6000610a5383610ccd565b8210610a94576040517f08c379a0000000000000000000000000000000000000000000000000000000008152600401610a8b906138f6565b60405180910390fd5b600960008473ffffffffffffffffffffffffffffffffffffffff1673ffffffffffffffffffffffffffffffffffffffff168152602001908152602001600020600083815260200190815260200160002054905092915050565b610af56112d5565b610afd6118fb565b565b610b1a83838360405180602001604052806000815250610ed1565b505050565b610b30610b2a611534565b826115f5565b610b6f576040517f08c379a0000000000000000000000000000000000000000000000000000000008152600401610b669061377b565b60405180910390fd5b610b788161195e565b50565b6000610b856107f0565b8210610bc6576040517f08c379a0000000000000000000000000000000000000000000000000000000008152600401610bbd90613988565b60405180910390fd5b600b8281548110610bda57610bd96139a8565b5b90600052602060002001549050919050565b610bf46112d5565b610bff838383611a7b565b505050565b6000600d60009054906101000a900460ff16905090565b6000806002600084815260200190815260200160002060009054906101000a900473ffffffffffffffffffffffffffffffffffffffff169050600073ffffffffffffffffffffffffffffffffffffffff168173ffffffffffffffffffffffffffffffffffffffff161415610cc4576040517f08c379a0000000000000000000000000000000000000000000000000000000008152600401610cbb90613a23565b60405180910390fd5b80915050919050565b60008073ffffffffffffffffffffffffffffffffffffffff168273ffffffffffffffffffffffffffffffffffffffff161415610d3e576040517f08c379a0000000000000000000000000000000000000000000000000000000008152600401610d3590613ab5565b60405180910390fd5b600360008373ffffffffffffffffffffffffffffffffffffffff1673ffffffffffffffffffffffffffffffffffffffff168152602001908152602001600020549050919050565b610d8d6112d5565b610d976000611c23565b565b610da16112d5565b610da9611ce9565b565b6000600d60019054906101000a900473ffffffffffffffffffffffffffffffffffffffff16905090565b60006006600083815260200190815260200160002060000160149054906101000a900467ffffffffffffffff1667ffffffffffffffff169050919050565b606060018054610e22906135b3565b80601f0160208091040260200160405190810160405280929190818152602001828054610e4e906135b3565b8015610e9b5780601f10610e7057610100808354040283529160200191610e9b565b820191906000526020600020905b815481529060010190602001808311610e7e57829003601f168201915b5050505050905090565b610ead6112d5565b610eb78282611d4c565b5050565b610ecd610ec6611534565b8383611d6a565b5050565b610ee2610edc611534565b836115f5565b610f21576040517f08c379a0000000000000000000000000000000000000000000000000000000008152600401610f189061377b565b60405180910390fd5b610f2d84848484611ed7565b50505050565b6000426006600084815260200190815260200160002060000160149054906101000a900467ffffffffffffffff1667ffffffffffffffff1610610fae576006600083815260200190815260200160002060000160009054906101000a900473ffffffffffffffffffffffffffffffffffffffff169050610fb3565b600090505b919050565b6060610fc3826114e9565b6000610fcd611f33565b90506000815111610fed5760405180602001604052806000815250611018565b80610ff784611fc5565b604051602001611008929190613b11565b6040516020818303038152906040525b915050919050565b61102a33846115f5565b611069576040517f08c379a000000000000000000000000000000000000000000000000000000000815260040161106090613ba7565b60405180910390fd5b6000600660008581526020019081526020016000209050828160000160006101000a81548173ffffffffffffffffffffffffffffffffffffffff021916908373ffffffffffffffffffffffffffffffffffffffff160217905550818160000160146101000a81548167ffffffffffffffff021916908367ffffffffffffffff1602179055508273ffffffffffffffffffffffffffffffffffffffff16847f4e06b4e7000e659094299b3533b47b6aa8ad048e95e872d23d1f4ee55af89cfe846040516111359190613bd6565b60405180910390a350505050565b6000600560008473ffffffffffffffffffffffffffffffffffffffff1673ffffffffffffffffffffffffffffffffffffffff16815260200190815260200160002060008373ffffffffffffffffffffffffffffffffffffffff1673ffffffffffffffffffffffffffffffffffffffff16815260200190815260200160002060009054906101000a900460ff16905092915050565b6111df6112d5565b600073ffffffffffffffffffffffffffffffffffffffff168173ffffffffffffffffffffffffffffffffffffffff16141561124f576040517f08c379a000000000000000000000000000000000000000000000000000000000815260040161124690613c63565b60405180910390fd5b61125881611c23565b50565b60007f780e9d63000000000000000000000000000000000000000000000000000000007bffffffffffffffffffffffffffffffffffffffffffffffffffffffff1916827bffffffffffffffffffffffffffffffffffffffffffffffffffffffff191614806112ce57506112cd82612126565b5b9050919050565b6112dd611534565b73ffffffffffffffffffffffffffffffffffffffff166112fb610dab565b73ffffffffffffffffffffffffffffffffffffffff1614611351576040517f08c379a000000000000000000000000000000000000000000000000000000000815260040161134890613ccf565b60405180910390fd5b565b61135b6118f1565b6bffffffffffffffffffffffff16816bffffffffffffffffffffffff1611156113b9576040517f08c379a00000000000000000000000000000000000000000000000000000000081526004016113b090613d61565b60405180910390fd5b600073ffffffffffffffffffffffffffffffffffffffff168273ffffffffffffffffffffffffffffffffffffffff161415611429576040517f08c379a000000000000000000000000000000000000000000000000000000000815260040161142090613dcd565b60405180910390fd5b60405180604001604052808373ffffffffffffffffffffffffffffffffffffffff168152602001826bffffffffffffffffffffffff16815250600760008201518160000160006101000a81548173ffffffffffffffffffffffffffffffffffffffff021916908373ffffffffffffffffffffffffffffffffffffffff16021790555060208201518160000160146101000a8154816bffffffffffffffffffffffff02191690836bffffffffffffffffffffffff1602179055509050505050565b6114f2816121a0565b611531576040517f08c379a000000000000000000000000000000000000000000000000000000000815260040161152890613a23565b60405180910390fd5b50565b600033905090565b816004600083815260200190815260200160002060006101000a81548173ffffffffffffffffffffffffffffffffffffffff021916908373ffffffffffffffffffffffffffffffffffffffff160217905550808273ffffffffffffffffffffffffffffffffffffffff166115af83610c1b565b73ffffffffffffffffffffffffffffffffffffffff167f8c5be1e5ebec7d5bd14f71427d1e84f3dd0314c0f7b2291e5b200ac8c7c3b92560405160405180910390a45050565b60008061160183610c1b565b90508073ffffffffffffffffffffffffffffffffffffffff168473ffffffffffffffffffffffffffffffffffffffff16148061164357506116428185611143565b5b8061168157508373ffffffffffffffffffffffffffffffffffffffff1661166984610692565b73ffffffffffffffffffffffffffffffffffffffff16145b91505092915050565b8273ffffffffffffffffffffffffffffffffffffffff166116aa82610c1b565b73ffffffffffffffffffffffffffffffffffffffff1614611700576040517f08c379a00000000000000000000000000000000000000000000000000000000081526004016116f790613e5f565b60405180910390fd5b600073ffffffffffffffffffffffffffffffffffffffff168273ffffffffffffffffffffffffffffffffffffffff161415611770576040517f08c379a000000000000000000000000000000000000000000000000000000000815260040161176790613ef1565b60405180910390fd5b61177b83838361220c565b61178660008261153c565b6001600360008573ffffffffffffffffffffffffffffffffffffffff1673ffffffffffffffffffffffffffffffffffffffff16815260200190815260200160002060008282546117d69190613f11565b925050819055506001600360008473ffffffffffffffffffffffffffffffffffffffff1673ffffffffffffffffffffffffffffffffffffffff168152602001908152602001600020600082825461182d9190613f45565b92505081905550816002600083815260200190815260200160002060006101000a81548173ffffffffffffffffffffffffffffffffffffffff021916908373ffffffffffffffffffffffffffffffffffffffff160217905550808273ffffffffffffffffffffffffffffffffffffffff168473ffffffffffffffffffffffffffffffffffffffff167fddf252ad1be2c89b69c2b068fc378daa952ba7f163c4a11628f55a4df523b3ef60405160405180910390a46118ec838383612224565b505050565b6000612710905090565b611903612229565b6000600d60006101000a81548160ff0219169083151502179055507f5db9ee0a495bf2e6ff9c91a7834c1ba4fdd244a5e8aa4e537bd38aeae4b073aa611947611534565b60405161195491906130cc565b60405180910390a1565b600061196982610c1b565b90506119778160008461220c565b61198260008361153c565b6001600360008373ffffffffffffffffffffffffffffffffffffffff1673ffffffffffffffffffffffffffffffffffffffff16815260200190815260200160002060008282546119d29190613f11565b925050819055506002600083815260200190815260200160002060006101000a81549073ffffffffffffffffffffffffffffffffffffffff021916905581600073ffffffffffffffffffffffffffffffffffffffff168273ffffffffffffffffffffffffffffffffffffffff167fddf252ad1be2c89b69c2b068fc378daa952ba7f163c4a11628f55a4df523b3ef60405160405180910390a4611a7781600084612224565b5050565b611a836118f1565b6bffffffffffffffffffffffff16816bffffffffffffffffffffffff161115611ae1576040517f08c379a0000000000000000000000000000000000000000000000000000000008152600401611ad890613d61565b60405180910390fd5b600073ffffffffffffffffffffffffffffffffffffffff168273ffffffffffffffffffffffffffffffffffffffff161415611b51576040517f08c379a0000000000000000000000000000000000000000000000000000000008152600401611b4890613fe7565b60405180910390fd5b60405180604001604052808373ffffffffffffffffffffffffffffffffffffffff168152602001826bffffffffffffffffffffffff168152506008600085815260200190815260200160002060008201518160000160006101000a81548173ffffffffffffffffffffffffffffffffffffffff021916908373ffffffffffffffffffffffffffffffffffffffff16021790555060208201518160000160146101000a8154816bffffffffffffffffffffffff02191690836bffffffffffffffffffffffff160217905550905050505050565b6000600d60019054906101000a900473ffffffffffffffffffffffffffffffffffffffff16905081600d60016101000a81548173ffffffffffffffffffffffffffffffffffffffff021916908373ffffffffffffffffffffffffffffffffffffffff1602179055508173ffffffffffffffffffffffffffffffffffffffff168173ffffffffffffffffffffffffffffffffffffffff167f8be0079c531659141344cd1fd0a4f28419497f9722a3daafe3b4186f6b6457e060405160405180910390a35050565b611cf1612272565b6001600d60006101000a81548160ff0219169083151502179055507f62e78cea01bee320cd4e420270b5ea74000d11b0c9f74754ebdbfc544b05a258611d35611534565b604051611d4291906130cc565b60405180910390a1565b611d668282604051806020016040528060008152506122bc565b5050565b8173ffffffffffffffffffffffffffffffffffffffff168373ffffffffffffffffffffffffffffffffffffffff161415611dd9576040517f08c379a0000000000000000000000000000000000000000000000000000000008152600401611dd090614053565b60405180910390fd5b80600560008573ffffffffffffffffffffffffffffffffffffffff1673ffffffffffffffffffffffffffffffffffffffff16815260200190815260200160002060008473ffffffffffffffffffffffffffffffffffffffff1673ffffffffffffffffffffffffffffffffffffffff16815260200190815260200160002060006101000a81548160ff0219169083151502179055508173ffffffffffffffffffffffffffffffffffffffff168373ffffffffffffffffffffffffffffffffffffffff167f17307eab39ab6107e8899845ad3d59bd9653f200f220920489ca2b5937696c3183604051611eca9190612ea2565b60405180910390a3505050565b611ee284848461168a565b611eee84848484612317565b611f2d576040517f08c379a0000000000000000000000000000000000000000000000000000000008152600401611f24906140e5565b60405180910390fd5b50505050565b6060600e8054611f42906135b3565b80601f0160208091040260200160405190810160405280929190818152602001828054611f6e906135b3565b8015611fbb5780601f10611f9057610100808354040283529160200191611fbb565b820191906000526020600020905b815481529060010190602001808311611f9e57829003601f168201915b5050505050905090565b6060600082141561200d576040518060400160405280600181526020017f30000000000000000000000000000000000000000000000000000000000000008152509050612121565b600082905060005b6000821461203f57808061202890614105565b915050600a826120389190613853565b9150612015565b60008167ffffffffffffffff81111561205b5761205a613303565b5b6040519080825280601f01601f19166020018201604052801561208d5781602001600182028036833780820191505090505b5090505b6000851461211a576001826120a69190613f11565b9150600a856120b5919061414e565b60306120c19190613f45565b60f81b8183815181106120d7576120d66139a8565b5b60200101907effffffffffffffffffffffffffffffffffffffffffffffffffffffffffffff1916908160001a905350600a856121139190613853565b9450612091565b8093505050505b919050565b60007f2a55205a000000000000000000000000000000000000000000000000000000007bffffffffffffffffffffffffffffffffffffffffffffffffffffffff1916827bffffffffffffffffffffffffffffffffffffffffffffffffffffffff191614806121995750612198826124ae565b5b9050919050565b60008073ffffffffffffffffffffffffffffffffffffffff166002600084815260200190815260200160002060009054906101000a900473ffffffffffffffffffffffffffffffffffffffff1673ffffffffffffffffffffffffffffffffffffffff1614159050919050565b612214612272565b61221f838383612528565b505050565b505050565b612231610c04565b612270576040517f08c379a0000000000000000000000000000000000000000000000000000000008152600401612267906141cb565b60405180910390fd5b565b61227a610c04565b156122ba576040517f08c379a00000000000000000000000000000000000000000000000000000000081526004016122b190614237565b60405180910390fd5b565b6122c6838361263c565b6122d36000848484612317565b612312576040517f08c379a0000000000000000000000000000000000000000000000000000000008152600401612309906140e5565b60405180910390fd5b505050565b60006123388473ffffffffffffffffffffffffffffffffffffffff16612816565b156124a1578373ffffffffffffffffffffffffffffffffffffffff1663150b7a02612361611534565b8786866040518563ffffffff1660e01b815260040161238394939291906142ac565b602060405180830381600087803b15801561239d57600080fd5b505af19250505080156123ce57506040513d601f19601f820116820180604052508101906123cb919061430d565b60015b612451573d80600081146123fe576040519150601f19603f3d011682016040523d82523d6000602084013e612403565b606091505b50600081511415612449576040517f08c379a0000000000000000000000000000000000000000000000000000000008152600401612440906140e5565b60405180910390fd5b805181602001fd5b63150b7a0260e01b7bffffffffffffffffffffffffffffffffffffffffffffffffffffffff1916817bffffffffffffffffffffffffffffffffffffffffffffffffffffffff1916149150506124a6565b600190505b949350505050565b60007fad092b5c000000000000000000000000000000000000000000000000000000007bffffffffffffffffffffffffffffffffffffffffffffffffffffffff1916827bffffffffffffffffffffffffffffffffffffffffffffffffffffffff19161480612521575061252082612839565b5b9050919050565b61253383838361291b565b600073ffffffffffffffffffffffffffffffffffffffff168373ffffffffffffffffffffffffffffffffffffffff1614156125765761257181612a79565b6125b5565b8173ffffffffffffffffffffffffffffffffffffffff168373ffffffffffffffffffffffffffffffffffffffff16146125b4576125b38382612ac2565b5b5b600073ffffffffffffffffffffffffffffffffffffffff168273ffffffffffffffffffffffffffffffffffffffff1614156125f8576125f381612c2f565b612637565b8273ffffffffffffffffffffffffffffffffffffffff168273ffffffffffffffffffffffffffffffffffffffff1614612636576126358282612d00565b5b5b505050565b600073ffffffffffffffffffffffffffffffffffffffff168273ffffffffffffffffffffffffffffffffffffffff1614156126ac576040517f08c379a00000000000000000000000000000000000000000000000000000000081526004016126a390614386565b60405180910390fd5b6126b5816121a0565b156126f5576040517f08c379a00000000000000000000000000000000000000000000000000000000081526004016126ec906143f2565b60405180910390fd5b6127016000838361220c565b6001600360008473ffffffffffffffffffffffffffffffffffffffff1673ffffffffffffffffffffffffffffffffffffffff16815260200190815260200160002060008282546127519190613f45565b92505081905550816002600083815260200190815260200160002060006101000a81548173ffffffffffffffffffffffffffffffffffffffff021916908373ffffffffffffffffffffffffffffffffffffffff160217905550808273ffffffffffffffffffffffffffffffffffffffff16600073ffffffffffffffffffffffffffffffffffffffff167fddf252ad1be2c89b69c2b068fc378daa952ba7f163c4a11628f55a4df523b3ef60405160405180910390a461281260008383612224565b5050565b6000808273ffffffffffffffffffffffffffffffffffffffff163b119050919050565b60007f80ac58cd000000000000000000000000000000000000000000000000000000007bffffffffffffffffffffffffffffffffffffffffffffffffffffffff1916827bffffffffffffffffffffffffffffffffffffffffffffffffffffffff1916148061290457507f5b5e139f000000000000000000000000000000000000000000000000000000007bffffffffffffffffffffffffffffffffffffffffffffffffffffffff1916827bffffffffffffffffffffffffffffffffffffffffffffffffffffffff1916145b80612914575061291382612d7f565b5b9050919050565b612926838383612de9565b8173ffffffffffffffffffffffffffffffffffffffff168373ffffffffffffffffffffffffffffffffffffffff16141580156129c55750600073ffffffffffffffffffffffffffffffffffffffff166006600083815260200190815260200160002060000160009054906101000a900473ffffffffffffffffffffffffffffffffffffffff1673ffffffffffffffffffffffffffffffffffffffff1614155b15612a745760066000828152602001908152602001600020600080820160006101000a81549073ffffffffffffffffffffffffffffffffffffffff02191690556000820160146101000a81549067ffffffffffffffff02191690555050600073ffffffffffffffffffffffffffffffffffffffff16817f4e06b4e7000e659094299b3533b47b6aa8ad048e95e872d23d1f4ee55af89cfe6000604051612a6b9190614457565b60405180910390a35b505050565b600b80549050600c600083815260200190815260200160002081905550600b81908060018154018082558091505060019003906000526020600020016000909190919091505550565b60006001612acf84610ccd565b612ad99190613f11565b90506000600a6000848152602001908152602001600020549050818114612bbe576000600960008673ffffffffffffffffffffffffffffffffffffffff1673ffffffffffffffffffffffffffffffffffffffff168152602001908152602001600020600084815260200190815260200160002054905080600960008773ffffffffffffffffffffffffffffffffffffffff1673ffffffffffffffffffffffffffffffffffffffff16815260200190815260200160002060008481526020019081526020016000208190555081600a600083815260200190815260200160002081905550505b600a600084815260200190815260200160002060009055600960008573ffffffffffffffffffffffffffffffffffffffff1673ffffffffffffffffffffffffffffffffffffffff16815260200190815260200160002060008381526020019081526020016000206000905550505050565b60006001600b80549050612c439190613f11565b90506000600c60008481526020019081526020016000205490506000600b8381548110612c7357612c726139a8565b5b9060005260206000200154905080600b8381548110612c9557612c946139a8565b5b906000526020600020018190555081600c600083815260200190815260200160002081905550600c600085815260200190815260200160002060009055600b805480612ce457612ce3614472565b5b6001900381819060005260206000200160009055905550505050565b6000612d0b83610ccd565b905081600960008573ffffffffffffffffffffffffffffffffffffffff1673ffffffffffffffffffffffffffffffffffffffff16815260200190815260200160002060008381526020019081526020016000208190555080600a600084815260200190815260200160002081905550505050565b60007f01ffc9a7000000000000000000000000000000000000000000000000000000007bffffffffffffffffffffffffffffffffffffffffffffffffffffffff1916827bffffffffffffffffffffffffffffffffffffffffffffffffffffffff1916149050919050565b505050565b6000604051905090565b600080fd5b600080fd5b60007fffffffff0000000000000000000000000000000000000000000000000000000082169050919050565b612e3781612e02565b8114612e4257600080fd5b50565b600081359050612e5481612e2e565b92915050565b600060208284031215612e7057612e6f612df8565b5b6000612e7e84828501612e45565b91505092915050565b60008115159050919050565b612e9c81612e87565b82525050565b6000602082019050612eb76000830184612e93565b92915050565b600073ffffffffffffffffffffffffffffffffffffffff82169050919050565b6000612ee882612ebd565b9050919050565b612ef881612edd565b8114612f0357600080fd5b50565b600081359050612f1581612eef565b92915050565b60006bffffffffffffffffffffffff82169050919050565b612f3c81612f1b565b8114612f4757600080fd5b50565b600081359050612f5981612f33565b92915050565b60008060408385031215612f7657612f75612df8565b5b6000612f8485828601612f06565b9250506020612f9585828601612f4a565b9150509250929050565b600081519050919050565b600082825260208201905092915050565b60005b83811015612fd9578082015181840152602081019050612fbe565b83811115612fe8576000848401525b50505050565b6000601f19601f8301169050919050565b600061300a82612f9f565b6130148185612faa565b9350613024818560208601612fbb565b61302d81612fee565b840191505092915050565b600060208201905081810360008301526130528184612fff565b905092915050565b6000819050919050565b61306d8161305a565b811461307857600080fd5b50565b60008135905061308a81613064565b92915050565b6000602082840312156130a6576130a5612df8565b5b60006130b48482850161307b565b91505092915050565b6130c681612edd565b82525050565b60006020820190506130e160008301846130bd565b92915050565b600080604083850312156130fe576130fd612df8565b5b600061310c85828601612f06565b925050602061311d8582860161307b565b9150509250929050565b6131308161305a565b82525050565b600060208201905061314b6000830184613127565b92915050565b60008060006060848603121561316a57613169612df8565b5b600061317886828701612f06565b935050602061318986828701612f06565b925050604061319a8682870161307b565b9150509250925092565b600080604083850312156131bb576131ba612df8565b5b60006131c98582860161307b565b92505060206131da8582860161307b565b9150509250929050565b60006040820190506131f960008301856130bd565b6132066020830184613127565b9392505050565b60008060006060848603121561322657613225612df8565b5b60006132348682870161307b565b935050602061324586828701612f06565b925050604061325686828701612f4a565b9150509250925092565b60006020828403121561327657613275612df8565b5b600061328484828501612f06565b91505092915050565b61329681612e87565b81146132a157600080fd5b50565b6000813590506132b38161328d565b92915050565b600080604083850312156132d0576132cf612df8565b5b60006132de85828601612f06565b92505060206132ef858286016132a4565b9150509250929050565b600080fd5b600080fd5b7f4e487b7100000000000000000000000000000000000000000000000000000000600052604160045260246000fd5b61333b82612fee565b810181811067ffffffffffffffff8211171561335a57613359613303565b5b80604052505050565b600061336d612dee565b90506133798282613332565b919050565b600067ffffffffffffffff82111561339957613398613303565b5b6133a282612fee565b9050602081019050919050565b82818337600083830152505050565b60006133d16133cc8461337e565b613363565b9050828152602081018484840111156133ed576133ec6132fe565b5b6133f88482856133af565b509392505050565b600082601f830112613415576134146132f9565b5b81356134258482602086016133be565b91505092915050565b6000806000806080858703121561344857613447612df8565b5b600061345687828801612f06565b945050602061346787828801612f06565b93505060406134788782880161307b565b925050606085013567ffffffffffffffff81111561349957613498612dfd565b5b6134a587828801613400565b91505092959194509250565b600067ffffffffffffffff82169050919050565b6134ce816134b1565b81146134d957600080fd5b50565b6000813590506134eb816134c5565b92915050565b60008060006060848603121561350a57613509612df8565b5b60006135188682870161307b565b935050602061352986828701612f06565b925050604061353a868287016134dc565b9150509250925092565b6000806040838503121561355b5761355a612df8565b5b600061356985828601612f06565b925050602061357a85828601612f06565b9150509250929050565b7f4e487b7100000000000000000000000000000000000000000000000000000000600052602260045260246000fd5b600060028204905060018216806135cb57607f821691505b602082108114156135df576135de613584565b5b50919050565b7f4552433732313a20617070726f76616c20746f2063757272656e74206f776e6560008201527f7200000000000000000000000000000000000000000000000000000000000000602082015250565b6000613641602183612faa565b915061364c826135e5565b604082019050919050565b6000602082019050818103600083015261367081613634565b9050919050565b7f4552433732313a20617070726f76652063616c6c6572206973206e6f7420746f60008201527f6b656e206f776e6572206e6f7220617070726f76656420666f7220616c6c0000602082015250565b60006136d3603e83612faa565b91506136de82613677565b604082019050919050565b60006020820190508181036000830152613702816136c6565b9050919050565b7f4552433732313a2063616c6c6572206973206e6f7420746f6b656e206f776e6560008201527f72206e6f7220617070726f766564000000000000000000000000000000000000602082015250565b6000613765602e83612faa565b915061377082613709565b604082019050919050565b6000602082019050818103600083015261379481613758565b9050919050565b7f4e487b7100000000000000000000000000000000000000000000000000000000600052601160045260246000fd5b60006137d58261305a565b91506137e08361305a565b9250817fffffffffffffffffffffffffffffffffffffffffffffffffffffffffffffffff04831182151516156138195761381861379b565b5b828202905092915050565b7f4e487b7100000000000000000000000000000000000000000000000000000000600052601260045260246000fd5b600061385e8261305a565b91506138698361305a565b92508261387957613878613824565b5b828204905092915050565b7f455243373231456e756d657261626c653a206f776e657220696e646578206f7560008201527f74206f6620626f756e6473000000000000000000000000000000000000000000602082015250565b60006138e0602b83612faa565b91506138eb82613884565b604082019050919050565b6000602082019050818103600083015261390f816138d3565b9050919050565b7f455243373231456e756d657261626c653a20676c6f62616c20696e646578206f60008201527f7574206f6620626f756e64730000000000000000000000000000000000000000602082015250565b6000613972602c83612faa565b915061397d82613916565b604082019050919050565b600060208201905081810360008301526139a181613965565b9050919050565b7f4e487b7100000000000000000000000000000000000000000000000000000000600052603260045260246000fd5b7f4552433732313a20696e76616c696420746f6b656e2049440000000000000000600082015250565b6000613a0d601883612faa565b9150613a18826139d7565b602082019050919050565b60006020820190508181036000830152613a3c81613a00565b9050919050565b7f4552433732313a2061646472657373207a65726f206973206e6f74206120766160008201527f6c6964206f776e65720000000000000000000000000000000000000000000000602082015250565b6000613a9f602983612faa565b9150613aaa82613a43565b604082019050919050565b60006020820190508181036000830152613ace81613a92565b9050919050565b600081905092915050565b6000613aeb82612f9f565b613af58185613ad5565b9350613b05818560208601612fbb565b80840191505092915050565b6000613b1d8285613ae0565b9150613b298284613ae0565b91508190509392505050565b7f455243343930373a207472616e736665722063616c6c6572206973206e6f742060008201527f6f776e6572206e6f7220617070726f7665640000000000000000000000000000602082015250565b6000613b91603283612faa565b9150613b9c82613b35565b604082019050919050565b60006020820190508181036000830152613bc081613b84565b9050919050565b613bd0816134b1565b82525050565b6000602082019050613beb6000830184613bc7565b92915050565b7f4f776e61626c653a206e6577206f776e657220697320746865207a65726f206160008201527f6464726573730000000000000000000000000000000000000000000000000000602082015250565b6000613c4d602683612faa565b9150613c5882613bf1565b604082019050919050565b60006020820190508181036000830152613c7c81613c40565b9050919050565b7f4f776e61626c653a2063616c6c6572206973206e6f7420746865206f776e6572600082015250565b6000613cb9602083612faa565b9150613cc482613c83565b602082019050919050565b60006020820190508181036000830152613ce881613cac565b9050919050565b7f455243323938313a20726f79616c7479206665652077696c6c2065786365656460008201527f2073616c65507269636500000000000000000000000000000000000000000000602082015250565b6000613d4b602a83612faa565b9150613d5682613cef565b604082019050919050565b60006020820190508181036000830152613d7a81613d3e565b9050919050565b7f455243323938313a20696e76616c696420726563656976657200000000000000600082015250565b6000613db7601983612faa565b9150613dc282613d81565b602082019050919050565b60006020820190508181036000830152613de681613daa565b9050919050565b7f4552433732313a207472616e736665722066726f6d20696e636f72726563742060008201527f6f776e6572000000000000000000000000000000000000000000000000000000602082015250565b6000613e49602583612faa565b9150613e5482613ded565b604082019050919050565b60006020820190508181036000830152613e7881613e3c565b9050919050565b7f4552433732313a207472616e7366657220746f20746865207a65726f2061646460008201527f7265737300000000000000000000000000000000000000000000000000000000602082015250565b6000613edb602483612faa565b9150613ee682613e7f565b604082019050919050565b60006020820190508181036000830152613f0a81613ece565b9050919050565b6000613f1c8261305a565b9150613f278361305a565b925082821015613f3a57613f3961379b565b5b828203905092915050565b6000613f508261305a565b9150613f5b8361305a565b9250827fffffffffffffffffffffffffffffffffffffffffffffffffffffffffffffffff03821115613f9057613f8f61379b565b5b828201905092915050565b7f455243323938313a20496e76616c696420706172616d65746572730000000000600082015250565b6000613fd1601b83612faa565b9150613fdc82613f9b565b602082019050919050565b6000602082019050818103600083015261400081613fc4565b9050919050565b7f4552433732313a20617070726f766520746f2063616c6c657200000000000000600082015250565b600061403d601983612faa565b915061404882614007565b602082019050919050565b6000602082019050818103600083015261406c81614030565b9050919050565b7f4552433732313a207472616e7366657220746f206e6f6e20455243373231526560008201527f63656976657220696d706c656d656e7465720000000000000000000000000000602082015250565b60006140cf603283612faa565b91506140da82614073565b604082019050919050565b600060208201905081810360008301526140fe816140c2565b9050919050565b60006141108261305a565b91507fffffffffffffffffffffffffffffffffffffffffffffffffffffffffffffffff8214156141435761414261379b565b5b600182019050919050565b60006141598261305a565b91506141648361305a565b92508261417457614173613824565b5b828206905092915050565b7f5061757361626c653a206e6f7420706175736564000000000000000000000000600082015250565b60006141b5601483612faa565b91506141c08261417f565b602082019050919050565b600060208201905081810360008301526141e4816141a8565b9050919050565b7f5061757361626c653a2070617573656400000000000000000000000000000000600082015250565b6000614221601083612faa565b915061422c826141eb565b602082019050919050565b6000602082019050818103600083015261425081614214565b9050919050565b600081519050919050565b600082825260208201905092915050565b600061427e82614257565b6142888185614262565b9350614298818560208601612fbb565b6142a181612fee565b840191505092915050565b60006080820190506142c160008301876130bd565b6142ce60208301866130bd565b6142db6040830185613127565b81810360608301526142ed8184614273565b905095945050505050565b60008151905061430781612e2e565b92915050565b60006020828403121561432357614322612df8565b5b6000614331848285016142f8565b91505092915050565b7f4552433732313a206d696e7420746f20746865207a65726f2061646472657373600082015250565b6000614370602083612faa565b915061437b8261433a565b602082019050919050565b6000602082019050818103600083015261439f81614363565b9050919050565b7f4552433732313a20746f6b656e20616c7265616479206d696e74656400000000600082015250565b60006143dc601c83612faa565b91506143e7826143a6565b602082019050919050565b6000602082019050818103600083015261440b816143cf565b9050919050565b6000819050919050565b6000819050919050565b600061444161443c61443784614412565b61441c565b6134b1565b9050919050565b61445181614426565b82525050565b600060208201905061446c6000830184614448565b92915050565b7f4e487b7100000000000000000000000000000000000000000000000000000000600052603160045260246000fdfea264697066735822122008fbfa35a68b46d06ead443cd03bd5627498594781b756bfa4165d8caa0d173164736f6c63430008090033",
  "linkReferences": {},
  "deployedLinkReferences": {}
}