{
  "_format": "hh-sol-artifact-1",
  "contractName": "ERC4907",
  "sourceName": "contracts/common/ERC4907.sol",
  "abi": [
    {
      "inputs": [
        {
          "internalType": "string",
          "name": "name_",
          "type": "string"
        },
        {
          "internalType": "string",
          "name": "symbol_",
          "type": "string"
        }
      ],
      "stateMutability": "nonpayable",
      "type": "constructor"
    },
    {
      "anonymous": false,
      "inputs": [
        {
          "indexed": true,
          "internalType": "address",
          "name": "owner",
          "type": "address"
        },
        {
          "indexed": true,
          "internalType": "address",
          "name": "approved",
          "type": "address"
        },
        {
          "indexed": true,
          "internalType": "uint256",
          "name": "tokenId",
          "type": "uint256"
        }
      ],
      "name": "Approval",
      "type": "event"
    },
    {
      "anonymous": false,
      "inputs": [
        {
          "indexed": true,
          "internalType": "address",
          "name": "owner",
          "type": "address"
        },
        {
          "indexed": true,
          "internalType": "address",
          "name": "operator",
          "type": "address"
        },
        {
          "indexed": false,
          "internalType": "bool",
          "name": "approved",
          "type": "bool"
        }
      ],
      "name": "ApprovalForAll",
      "type": "event"
    },
    {
      "anonymous": false,
      "inputs": [
        {
          "indexed": true,
          "internalType": "address",
          "name": "from",
          "type": "address"
        },
        {
          "indexed": true,
          "internalType": "address",
          "name": "to",
          "type": "address"
        },
        {
          "indexed": true,
          "internalType": "uint256",
          "name": "tokenId",
          "type": "uint256"
        }
      ],
      "name": "Transfer",
      "type": "event"
    },
    {
      "anonymous": false,
      "inputs": [
        {
          "indexed": true,
          "internalType": "uint256",
          "name": "tokenId",
          "type": "uint256"
        },
        {
          "indexed": true,
          "internalType": "address",
          "name": "user",
          "type": "address"
        },
        {
          "indexed": false,
          "internalType": "uint64",
          "name": "expires",
          "type": "uint64"
        }
      ],
      "name": "UpdateUser",
      "type": "event"
    },
    {
      "inputs": [
        {
          "internalType": "address",
          "name": "to",
          "type": "address"
        },
        {
          "internalType": "uint256",
          "name": "tokenId",
          "type": "uint256"
        }
      ],
      "name": "approve",
      "outputs": [],
      "stateMutability": "nonpayable",
      "type": "function"
    },
    {
      "inputs": [
        {
          "internalType": "address",
          "name": "owner",
          "type": "address"
        }
      ],
      "name": "balanceOf",
      "outputs": [
        {
          "internalType": "uint256",
          "name": "",
          "type": "uint256"
        }
      ],
      "stateMutability": "view",
      "type": "function"
    },
    {
      "inputs": [
        {
          "internalType": "uint256",
          "name": "tokenId",
          "type": "uint256"
        }
      ],
      "name": "getApproved",
      "outputs": [
        {
          "internalType": "address",
          "name": "",
          "type": "address"
        }
      ],
      "stateMutability": "view",
      "type": "function"
    },
    {
      "inputs": [
        {
          "internalType": "address",
          "name": "owner",
          "type": "address"
        },
        {
          "internalType": "address",
          "name": "operator",
          "type": "address"
        }
      ],
      "name": "isApprovedForAll",
      "outputs": [
        {
          "internalType": "bool",
          "name": "",
          "type": "bool"
        }
      ],
      "stateMutability": "view",
      "type": "function"
    },
    {
      "inputs": [],
      "name": "name",
      "outputs": [
        {
          "internalType": "string",
          "name": "",
          "type": "string"
        }
      ],
      "stateMutability": "view",
      "type": "function"
    },
    {
      "inputs": [
        {
          "internalType": "uint256",
          "name": "tokenId",
          "type": "uint256"
        }
      ],
      "name": "ownerOf",
      "outputs": [
        {
          "internalType": "address",
          "name": "",
          "type": "address"
        }
      ],
      "stateMutability": "view",
      "type": "function"
    },
    {
      "inputs": [
        {
          "internalType": "address",
          "name": "from",
          "type": "address"
        },
        {
          "internalType": "address",
          "name": "to",
          "type": "address"
        },
        {
          "internalType": "uint256",
          "name": "tokenId",
          "type": "uint256"
        }
      ],
      "name": "safeTransferFrom",
      "outputs": [],
      "stateMutability": "nonpayable",
      "type": "function"
    },
    {
      "inputs": [
        {
          "internalType": "address",
          "name": "from",
          "type": "address"
        },
        {
          "internalType": "address",
          "name": "to",
          "type": "address"
        },
        {
          "internalType": "uint256",
          "name": "tokenId",
          "type": "uint256"
        },
        {
          "internalType": "bytes",
          "name": "data",
          "type": "bytes"
        }
      ],
      "name": "safeTransferFrom",
      "outputs": [],
      "stateMutability": "nonpayable",
      "type": "function"
    },
    {
      "inputs": [
        {
          "internalType": "address",
          "name": "operator",
          "type": "address"
        },
        {
          "internalType": "bool",
          "name": "approved",
          "type": "bool"
        }
      ],
      "name": "setApprovalForAll",
      "outputs": [],
      "stateMutability": "nonpayable",
      "type": "function"
    },
    {
      "inputs": [
        {
          "internalType": "uint256",
          "name": "tokenId",
          "type": "uint256"
        },
        {
          "internalType": "address",
          "name": "user",
          "type": "address"
        },
        {
          "internalType": "uint64",
          "name": "expires",
          "type": "uint64"
        }
      ],
      "name": "setUser",
      "outputs": [],
      "stateMutability": "nonpayable",
      "type": "function"
    },
    {
      "inputs": [
        {
          "internalType": "bytes4",
          "name": "interfaceId",
          "type": "bytes4"
        }
      ],
      "name": "supportsInterface",
      "outputs": [
        {
          "internalType": "bool",
          "name": "",
          "type": "bool"
        }
      ],
      "stateMutability": "view",
      "type": "function"
    },
    {
      "inputs": [],
      "name": "symbol",
      "outputs": [
        {
          "internalType": "string",
          "name": "",
          "type": "string"
        }
      ],
      "stateMutability": "view",
      "type": "function"
    },
    {
      "inputs": [
        {
          "internalType": "uint256",
          "name": "tokenId",
          "type": "uint256"
        }
      ],
      "name": "tokenURI",
      "outputs": [
        {
          "internalType": "string",
          "name": "",
          "type": "string"
        }
      ],
      "stateMutability": "view",
      "type": "function"
    },
    {
      "inputs": [
        {
          "internalType": "address",
          "name": "from",
          "type": "address"
        },
        {
          "internalType": "address",
          "name": "to",
          "type": "address"
        },
        {
          "internalType": "uint256",
          "name": "tokenId",
          "type": "uint256"
        }
      ],
      "name": "transferFrom",
      "outputs": [],
      "stateMutability": "nonpayable",
      "type": "function"
    },
    {
      "inputs": [
        {
          "internalType": "uint256",
          "name": "tokenId",
          "type": "uint256"
        }
      ],
      "name": "userExpires",
      "outputs": [
        {
          "internalType": "uint256",
          "name": "",
          "type": "uint256"
        }
      ],
      "stateMutability": "view",
      "type": "function"
    },
    {
      "inputs": [
        {
          "internalType": "uint256",
          "name": "tokenId",
          "type": "uint256"
        }
      ],
      "name": "userOf",
      "outputs": [
        {
          "internalType": "address",
          "name": "",
          "type": "address"
        }
      ],
      "stateMutability": "view",
      "type": "function"
    }
  ],
  "bytecode": "0x60806040523480156200001157600080fd5b5060405162002b6c38038062002b6c8339818101604052810190620000379190620002c2565b818181600090805190602001906200005192919062000075565b5080600190805190602001906200006a92919062000075565b5050505050620003ac565b828054620000839062000376565b90600052602060002090601f016020900481019282620000a75760008555620000f3565b82601f10620000c257805160ff1916838001178555620000f3565b82800160010185558215620000f3579182015b82811115620000f2578251825591602001919060010190620000d5565b5b50905062000102919062000106565b5090565b5b808211156200012157600081600090555060010162000107565b5090565b6000604051905090565b600080fd5b600080fd5b600080fd5b600080fd5b6000601f19601f8301169050919050565b7f4e487b7100000000000000000000000000000000000000000000000000000000600052604160045260246000fd5b6200018e8262000143565b810181811067ffffffffffffffff82111715620001b057620001af62000154565b5b80604052505050565b6000620001c562000125565b9050620001d3828262000183565b919050565b600067ffffffffffffffff821115620001f657620001f562000154565b5b620002018262000143565b9050602081019050919050565b60005b838110156200022e57808201518184015260208101905062000211565b838111156200023e576000848401525b50505050565b60006200025b6200025584620001d8565b620001b9565b9050828152602081018484840111156200027a57620002796200013e565b5b620002878482856200020e565b509392505050565b600082601f830112620002a757620002a662000139565b5b8151620002b984826020860162000244565b91505092915050565b60008060408385031215620002dc57620002db6200012f565b5b600083015167ffffffffffffffff811115620002fd57620002fc62000134565b5b6200030b858286016200028f565b925050602083015167ffffffffffffffff8111156200032f576200032e62000134565b5b6200033d858286016200028f565b9150509250929050565b7f4e487b7100000000000000000000000000000000000000000000000000000000600052602260045260246000fd5b600060028204905060018216806200038f57607f821691505b60208210811415620003a657620003a562000347565b5b50919050565b6127b080620003bc6000396000f3fe608060405234801561001057600080fd5b50600436106101005760003560e01c80638fc88c4811610097578063c2f1f14a11610066578063c2f1f14a146102bd578063c87b56dd146102ed578063e030565e1461031d578063e985e9c51461033957610100565b80638fc88c481461023757806395d89b4114610267578063a22cb46514610285578063b88d4fde146102a157610100565b806323b872dd116100d357806323b872dd1461019f57806342842e0e146101bb5780636352211e146101d757806370a082311461020757610100565b806301ffc9a71461010557806306fdde0314610135578063081812fc14610153578063095ea7b314610183575b600080fd5b61011f600480360381019061011a9190611838565b610369565b60405161012c9190611880565b60405180910390f35b61013d6103e3565b60405161014a9190611934565b60405180910390f35b61016d6004803603810190610168919061198c565b610475565b60405161017a91906119fa565b60405180910390f35b61019d60048036038101906101989190611a41565b6104bb565b005b6101b960048036038101906101b49190611a81565b6105d3565b005b6101d560048036038101906101d09190611a81565b610633565b005b6101f160048036038101906101ec919061198c565b610653565b6040516101fe91906119fa565b60405180910390f35b610221600480360381019061021c9190611ad4565b610705565b60405161022e9190611b10565b60405180910390f35b610251600480360381019061024c919061198c565b6107bd565b60405161025e9190611b10565b60405180910390f35b61026f6107fb565b60405161027c9190611934565b60405180910390f35b61029f600480360381019061029a9190611b57565b61088d565b005b6102bb60048036038101906102b69190611ccc565b6108a3565b005b6102d760048036038101906102d2919061198c565b610905565b6040516102e491906119fa565b60405180910390f35b6103076004803603810190610302919061198c565b61098a565b6040516103149190611934565b60405180910390f35b61033760048036038101906103329190611d8f565b6109f2565b005b610353600480360381019061034e9190611de2565b610b15565b6040516103609190611880565b60405180910390f35b60007fad092b5c000000000000000000000000000000000000000000000000000000007bffffffffffffffffffffffffffffffffffffffffffffffffffffffff1916827bffffffffffffffffffffffffffffffffffffffffffffffffffffffff191614806103dc57506103db82610ba9565b5b9050919050565b6060600080546103f290611e51565b80601f016020809104026020016040519081016040528092919081815260200182805461041e90611e51565b801561046b5780601f106104405761010080835404028352916020019161046b565b820191906000526020600020905b81548152906001019060200180831161044e57829003601f168201915b5050505050905090565b600061048082610c8b565b6004600083815260200190815260200160002060009054906101000a900473ffffffffffffffffffffffffffffffffffffffff169050919050565b60006104c682610653565b90508073ffffffffffffffffffffffffffffffffffffffff168373ffffffffffffffffffffffffffffffffffffffff161415610537576040517f08c379a000000000000000000000000000000000000000000000000000000000815260040161052e90611ef5565b60405180910390fd5b8073ffffffffffffffffffffffffffffffffffffffff16610556610cd6565b73ffffffffffffffffffffffffffffffffffffffff16148061058557506105848161057f610cd6565b610b15565b5b6105c4576040517f08c379a00000000000000000000000000000000000000000000000000000000081526004016105bb90611f87565b60405180910390fd5b6105ce8383610cde565b505050565b6105e46105de610cd6565b82610d97565b610623576040517f08c379a000000000000000000000000000000000000000000000000000000000815260040161061a90612019565b60405180910390fd5b61062e838383610e2c565b505050565b61064e838383604051806020016040528060008152506108a3565b505050565b6000806002600084815260200190815260200160002060009054906101000a900473ffffffffffffffffffffffffffffffffffffffff169050600073ffffffffffffffffffffffffffffffffffffffff168173ffffffffffffffffffffffffffffffffffffffff1614156106fc576040517f08c379a00000000000000000000000000000000000000000000000000000000081526004016106f390612085565b60405180910390fd5b80915050919050565b60008073ffffffffffffffffffffffffffffffffffffffff168273ffffffffffffffffffffffffffffffffffffffff161415610776576040517f08c379a000000000000000000000000000000000000000000000000000000000815260040161076d90612117565b60405180910390fd5b600360008373ffffffffffffffffffffffffffffffffffffffff1673ffffffffffffffffffffffffffffffffffffffff168152602001908152602001600020549050919050565b60006006600083815260200190815260200160002060000160149054906101000a900467ffffffffffffffff1667ffffffffffffffff169050919050565b60606001805461080a90611e51565b80601f016020809104026020016040519081016040528092919081815260200182805461083690611e51565b80156108835780601f1061085857610100808354040283529160200191610883565b820191906000526020600020905b81548152906001019060200180831161086657829003601f168201915b5050505050905090565b61089f610898610cd6565b8383611093565b5050565b6108b46108ae610cd6565b83610d97565b6108f3576040517f08c379a00000000000000000000000000000000000000000000000000000000081526004016108ea90612019565b60405180910390fd5b6108ff84848484611200565b50505050565b6000426006600084815260200190815260200160002060000160149054906101000a900467ffffffffffffffff1667ffffffffffffffff1610610980576006600083815260200190815260200160002060000160009054906101000a900473ffffffffffffffffffffffffffffffffffffffff169050610985565b600090505b919050565b606061099582610c8b565b600061099f61125c565b905060008151116109bf57604051806020016040528060008152506109ea565b806109c984611273565b6040516020016109da929190612173565b6040516020818303038152906040525b915050919050565b6109fc3384610d97565b610a3b576040517f08c379a0000000000000000000000000000000000000000000000000000000008152600401610a3290612209565b60405180910390fd5b6000600660008581526020019081526020016000209050828160000160006101000a81548173ffffffffffffffffffffffffffffffffffffffff021916908373ffffffffffffffffffffffffffffffffffffffff160217905550818160000160146101000a81548167ffffffffffffffff021916908367ffffffffffffffff1602179055508273ffffffffffffffffffffffffffffffffffffffff16847f4e06b4e7000e659094299b3533b47b6aa8ad048e95e872d23d1f4ee55af89cfe84604051610b079190612238565b60405180910390a350505050565b6000600560008473ffffffffffffffffffffffffffffffffffffffff1673ffffffffffffffffffffffffffffffffffffffff16815260200190815260200160002060008373ffffffffffffffffffffffffffffffffffffffff1673ffffffffffffffffffffffffffffffffffffffff16815260200190815260200160002060009054906101000a900460ff16905092915050565b60007f80ac58cd000000000000000000000000000000000000000000000000000000007bffffffffffffffffffffffffffffffffffffffffffffffffffffffff1916827bffffffffffffffffffffffffffffffffffffffffffffffffffffffff19161480610c7457507f5b5e139f000000000000000000000000000000000000000000000000000000007bffffffffffffffffffffffffffffffffffffffffffffffffffffffff1916827bffffffffffffffffffffffffffffffffffffffffffffffffffffffff1916145b80610c845750610c83826113d4565b5b9050919050565b610c948161143e565b610cd3576040517f08c379a0000000000000000000000000000000000000000000000000000000008152600401610cca90612085565b60405180910390fd5b50565b600033905090565b816004600083815260200190815260200160002060006101000a81548173ffffffffffffffffffffffffffffffffffffffff021916908373ffffffffffffffffffffffffffffffffffffffff160217905550808273ffffffffffffffffffffffffffffffffffffffff16610d5183610653565b73ffffffffffffffffffffffffffffffffffffffff167f8c5be1e5ebec7d5bd14f71427d1e84f3dd0314c0f7b2291e5b200ac8c7c3b92560405160405180910390a45050565b600080610da383610653565b90508073ffffffffffffffffffffffffffffffffffffffff168473ffffffffffffffffffffffffffffffffffffffff161480610de55750610de48185610b15565b5b80610e2357508373ffffffffffffffffffffffffffffffffffffffff16610e0b84610475565b73ffffffffffffffffffffffffffffffffffffffff16145b91505092915050565b8273ffffffffffffffffffffffffffffffffffffffff16610e4c82610653565b73ffffffffffffffffffffffffffffffffffffffff1614610ea2576040517f08c379a0000000000000000000000000000000000000000000000000000000008152600401610e99906122c5565b60405180910390fd5b600073ffffffffffffffffffffffffffffffffffffffff168273ffffffffffffffffffffffffffffffffffffffff161415610f12576040517f08c379a0000000000000000000000000000000000000000000000000000000008152600401610f0990612357565b60405180910390fd5b610f1d8383836114aa565b610f28600082610cde565b6001600360008573ffffffffffffffffffffffffffffffffffffffff1673ffffffffffffffffffffffffffffffffffffffff1681526020019081526020016000206000828254610f7891906123a6565b925050819055506001600360008473ffffffffffffffffffffffffffffffffffffffff1673ffffffffffffffffffffffffffffffffffffffff1681526020019081526020016000206000828254610fcf91906123da565b92505081905550816002600083815260200190815260200160002060006101000a81548173ffffffffffffffffffffffffffffffffffffffff021916908373ffffffffffffffffffffffffffffffffffffffff160217905550808273ffffffffffffffffffffffffffffffffffffffff168473ffffffffffffffffffffffffffffffffffffffff167fddf252ad1be2c89b69c2b068fc378daa952ba7f163c4a11628f55a4df523b3ef60405160405180910390a461108e838383611608565b505050565b8173ffffffffffffffffffffffffffffffffffffffff168373ffffffffffffffffffffffffffffffffffffffff161415611102576040517f08c379a00000000000000000000000000000000000000000000000000000000081526004016110f99061247c565b60405180910390fd5b80600560008573ffffffffffffffffffffffffffffffffffffffff1673ffffffffffffffffffffffffffffffffffffffff16815260200190815260200160002060008473ffffffffffffffffffffffffffffffffffffffff1673ffffffffffffffffffffffffffffffffffffffff16815260200190815260200160002060006101000a81548160ff0219169083151502179055508173ffffffffffffffffffffffffffffffffffffffff168373ffffffffffffffffffffffffffffffffffffffff167f17307eab39ab6107e8899845ad3d59bd9653f200f220920489ca2b5937696c31836040516111f39190611880565b60405180910390a3505050565b61120b848484610e2c565b6112178484848461160d565b611256576040517f08c379a000000000000000000000000000000000000000000000000000000000815260040161124d9061250e565b60405180910390fd5b50505050565b606060405180602001604052806000815250905090565b606060008214156112bb576040518060400160405280600181526020017f300000000000000000000000000000000000000000000000000000000000000081525090506113cf565b600082905060005b600082146112ed5780806112d69061252e565b915050600a826112e691906125a6565b91506112c3565b60008167ffffffffffffffff81111561130957611308611ba1565b5b6040519080825280601f01601f19166020018201604052801561133b5781602001600182028036833780820191505090505b5090505b600085146113c85760018261135491906123a6565b9150600a8561136391906125d7565b603061136f91906123da565b60f81b81838151811061138557611384612608565b5b60200101907effffffffffffffffffffffffffffffffffffffffffffffffffffffffffffff1916908160001a905350600a856113c191906125a6565b945061133f565b8093505050505b919050565b60007f01ffc9a7000000000000000000000000000000000000000000000000000000007bffffffffffffffffffffffffffffffffffffffffffffffffffffffff1916827bffffffffffffffffffffffffffffffffffffffffffffffffffffffff1916149050919050565b60008073ffffffffffffffffffffffffffffffffffffffff166002600084815260200190815260200160002060009054906101000a900473ffffffffffffffffffffffffffffffffffffffff1673ffffffffffffffffffffffffffffffffffffffff1614159050919050565b6114b58383836117a4565b8173ffffffffffffffffffffffffffffffffffffffff168373ffffffffffffffffffffffffffffffffffffffff16141580156115545750600073ffffffffffffffffffffffffffffffffffffffff166006600083815260200190815260200160002060000160009054906101000a900473ffffffffffffffffffffffffffffffffffffffff1673ffffffffffffffffffffffffffffffffffffffff1614155b156116035760066000828152602001908152602001600020600080820160006101000a81549073ffffffffffffffffffffffffffffffffffffffff02191690556000820160146101000a81549067ffffffffffffffff02191690555050600073ffffffffffffffffffffffffffffffffffffffff16817f4e06b4e7000e659094299b3533b47b6aa8ad048e95e872d23d1f4ee55af89cfe60006040516115fa919061267c565b60405180910390a35b505050565b505050565b600061162e8473ffffffffffffffffffffffffffffffffffffffff166117a9565b15611797578373ffffffffffffffffffffffffffffffffffffffff1663150b7a02611657610cd6565b8786866040518563ffffffff1660e01b815260040161167994939291906126ec565b602060405180830381600087803b15801561169357600080fd5b505af19250505080156116c457506040513d601f19601f820116820180604052508101906116c1919061274d565b60015b611747573d80600081146116f4576040519150601f19603f3d011682016040523d82523d6000602084013e6116f9565b606091505b5060008151141561173f576040517f08c379a00000000000000000000000000000000000000000000000000000000081526004016117369061250e565b60405180910390fd5b805181602001fd5b63150b7a0260e01b7bffffffffffffffffffffffffffffffffffffffffffffffffffffffff1916817bffffffffffffffffffffffffffffffffffffffffffffffffffffffff19161491505061179c565b600190505b949350505050565b505050565b6000808273ffffffffffffffffffffffffffffffffffffffff163b119050919050565b6000604051905090565b600080fd5b600080fd5b60007fffffffff0000000000000000000000000000000000000000000000000000000082169050919050565b611815816117e0565b811461182057600080fd5b50565b6000813590506118328161180c565b92915050565b60006020828403121561184e5761184d6117d6565b5b600061185c84828501611823565b91505092915050565b60008115159050919050565b61187a81611865565b82525050565b60006020820190506118956000830184611871565b92915050565b600081519050919050565b600082825260208201905092915050565b60005b838110156118d55780820151818401526020810190506118ba565b838111156118e4576000848401525b50505050565b6000601f19601f8301169050919050565b60006119068261189b565b61191081856118a6565b93506119208185602086016118b7565b611929816118ea565b840191505092915050565b6000602082019050818103600083015261194e81846118fb565b905092915050565b6000819050919050565b61196981611956565b811461197457600080fd5b50565b60008135905061198681611960565b92915050565b6000602082840312156119a2576119a16117d6565b5b60006119b084828501611977565b91505092915050565b600073ffffffffffffffffffffffffffffffffffffffff82169050919050565b60006119e4826119b9565b9050919050565b6119f4816119d9565b82525050565b6000602082019050611a0f60008301846119eb565b92915050565b611a1e816119d9565b8114611a2957600080fd5b50565b600081359050611a3b81611a15565b92915050565b60008060408385031215611a5857611a576117d6565b5b6000611a6685828601611a2c565b9250506020611a7785828601611977565b9150509250929050565b600080600060608486031215611a9a57611a996117d6565b5b6000611aa886828701611a2c565b9350506020611ab986828701611a2c565b9250506040611aca86828701611977565b9150509250925092565b600060208284031215611aea57611ae96117d6565b5b6000611af884828501611a2c565b91505092915050565b611b0a81611956565b82525050565b6000602082019050611b256000830184611b01565b92915050565b611b3481611865565b8114611b3f57600080fd5b50565b600081359050611b5181611b2b565b92915050565b60008060408385031215611b6e57611b6d6117d6565b5b6000611b7c85828601611a2c565b9250506020611b8d85828601611b42565b9150509250929050565b600080fd5b600080fd5b7f4e487b7100000000000000000000000000000000000000000000000000000000600052604160045260246000fd5b611bd9826118ea565b810181811067ffffffffffffffff82111715611bf857611bf7611ba1565b5b80604052505050565b6000611c0b6117cc565b9050611c178282611bd0565b919050565b600067ffffffffffffffff821115611c3757611c36611ba1565b5b611c40826118ea565b9050602081019050919050565b82818337600083830152505050565b6000611c6f611c6a84611c1c565b611c01565b905082815260208101848484011115611c8b57611c8a611b9c565b5b611c96848285611c4d565b509392505050565b600082601f830112611cb357611cb2611b97565b5b8135611cc3848260208601611c5c565b91505092915050565b60008060008060808587031215611ce657611ce56117d6565b5b6000611cf487828801611a2c565b9450506020611d0587828801611a2c565b9350506040611d1687828801611977565b925050606085013567ffffffffffffffff811115611d3757611d366117db565b5b611d4387828801611c9e565b91505092959194509250565b600067ffffffffffffffff82169050919050565b611d6c81611d4f565b8114611d7757600080fd5b50565b600081359050611d8981611d63565b92915050565b600080600060608486031215611da857611da76117d6565b5b6000611db686828701611977565b9350506020611dc786828701611a2c565b9250506040611dd886828701611d7a565b9150509250925092565b60008060408385031215611df957611df86117d6565b5b6000611e0785828601611a2c565b9250506020611e1885828601611a2c565b9150509250929050565b7f4e487b7100000000000000000000000000000000000000000000000000000000600052602260045260246000fd5b60006002820490506001821680611e6957607f821691505b60208210811415611e7d57611e7c611e22565b5b50919050565b7f4552433732313a20617070726f76616c20746f2063757272656e74206f776e6560008201527f7200000000000000000000000000000000000000000000000000000000000000602082015250565b6000611edf6021836118a6565b9150611eea82611e83565b604082019050919050565b60006020820190508181036000830152611f0e81611ed2565b9050919050565b7f4552433732313a20617070726f76652063616c6c6572206973206e6f7420746f60008201527f6b656e206f776e6572206e6f7220617070726f76656420666f7220616c6c0000602082015250565b6000611f71603e836118a6565b9150611f7c82611f15565b604082019050919050565b60006020820190508181036000830152611fa081611f64565b9050919050565b7f4552433732313a2063616c6c6572206973206e6f7420746f6b656e206f776e6560008201527f72206e6f7220617070726f766564000000000000000000000000000000000000602082015250565b6000612003602e836118a6565b915061200e82611fa7565b604082019050919050565b6000602082019050818103600083015261203281611ff6565b9050919050565b7f4552433732313a20696e76616c696420746f6b656e2049440000000000000000600082015250565b600061206f6018836118a6565b915061207a82612039565b602082019050919050565b6000602082019050818103600083015261209e81612062565b9050919050565b7f4552433732313a2061646472657373207a65726f206973206e6f74206120766160008201527f6c6964206f776e65720000000000000000000000000000000000000000000000602082015250565b60006121016029836118a6565b915061210c826120a5565b604082019050919050565b60006020820190508181036000830152612130816120f4565b9050919050565b600081905092915050565b600061214d8261189b565b6121578185612137565b93506121678185602086016118b7565b80840191505092915050565b600061217f8285612142565b915061218b8284612142565b91508190509392505050565b7f455243343930373a207472616e736665722063616c6c6572206973206e6f742060008201527f6f776e6572206e6f7220617070726f7665640000000000000000000000000000602082015250565b60006121f36032836118a6565b91506121fe82612197565b604082019050919050565b60006020820190508181036000830152612222816121e6565b9050919050565b61223281611d4f565b82525050565b600060208201905061224d6000830184612229565b92915050565b7f4552433732313a207472616e736665722066726f6d20696e636f72726563742060008201527f6f776e6572000000000000000000000000000000000000000000000000000000602082015250565b60006122af6025836118a6565b91506122ba82612253565b604082019050919050565b600060208201905081810360008301526122de816122a2565b9050919050565b7f4552433732313a207472616e7366657220746f20746865207a65726f2061646460008201527f7265737300000000000000000000000000000000000000000000000000000000602082015250565b60006123416024836118a6565b915061234c826122e5565b604082019050919050565b6000602082019050818103600083015261237081612334565b9050919050565b7f4e487b7100000000000000000000000000000000000000000000000000000000600052601160045260246000fd5b60006123b182611956565b91506123bc83611956565b9250828210156123cf576123ce612377565b5b828203905092915050565b60006123e582611956565b91506123f083611956565b9250827fffffffffffffffffffffffffffffffffffffffffffffffffffffffffffffffff0382111561242557612424612377565b5b828201905092915050565b7f4552433732313a20617070726f766520746f2063616c6c657200000000000000600082015250565b60006124666019836118a6565b915061247182612430565b602082019050919050565b6000602082019050818103600083015261249581612459565b9050919050565b7f4552433732313a207472616e7366657220746f206e6f6e20455243373231526560008201527f63656976657220696d706c656d656e7465720000000000000000000000000000602082015250565b60006124f86032836118a6565b91506125038261249c565b604082019050919050565b60006020820190508181036000830152612527816124eb565b9050919050565b600061253982611956565b91507fffffffffffffffffffffffffffffffffffffffffffffffffffffffffffffffff82141561256c5761256b612377565b5b600182019050919050565b7f4e487b7100000000000000000000000000000000000000000000000000000000600052601260045260246000fd5b60006125b182611956565b91506125bc83611956565b9250826125cc576125cb612577565b5b828204905092915050565b60006125e282611956565b91506125ed83611956565b9250826125fd576125fc612577565b5b828206905092915050565b7f4e487b7100000000000000000000000000000000000000000000000000000000600052603260045260246000fd5b6000819050919050565b6000819050919050565b600061266661266161265c84612637565b612641565b611d4f565b9050919050565b6126768161264b565b82525050565b6000602082019050612691600083018461266d565b92915050565b600081519050919050565b600082825260208201905092915050565b60006126be82612697565b6126c881856126a2565b93506126d88185602086016118b7565b6126e1816118ea565b840191505092915050565b600060808201905061270160008301876119eb565b61270e60208301866119eb565b61271b6040830185611b01565b818103606083015261272d81846126b3565b905095945050505050565b6000815190506127478161180c565b92915050565b600060208284031215612763576127626117d6565b5b600061277184828501612738565b9150509291505056fea2646970667358221220205c971cb58bb06573827e9a6012d7978d17bb1662c28eb4b459a3463d09376464736f6c63430008090033",
  "linkReferences": {},
  "deployedLinkReferences": {}
}